:020000040000FA
:060000000A128A11EE2F26
:100C340083160313880183120313880108007008C4
:100C4400203E8400831300088312031386000800E7
:100C54007008203E84008313000883120313880065
:100C640008000A128A11BF260A128A11332E0A12A8
:100C74008A1100288316031789018316031386013A
:100C8400831203138601080083120313070C01392E
:100C9400F200F3017208F0007308F10008008312F7
:100CA400031307080139F200F3017208F000730816
:100CB400F100080083120313070CF200720C0139CF
:100CC400F300F4017308F0007408F10008008312C3
:100CD4000313070CF200F20C720C0139F300F40157
:100CE4007308F0007408F1000800831603178901E3
:100CF4008316031307148714071587158312031328
:100D0400071087100711871108003F3406345B343D
:100D14004F3466346D347D3407347F346F34773424
:100D24007C3439345E34793471347E088A007F0827
:100D340082000A128A1197260A128A118000840AF4
:100D440004087D0603190034FF0A0319FE0A9B2ECA
:100D5400B82EC730F200AE2EF20BAD2EB12EB22E4D
:100D64000130F0020030031CF103F1027008710439
:100D7400031DBD2EBE2EAB2E08000A128A11772643
:100D84000A128A110A128A113C260A128A110A12BC
:100D94008A111A260A128A110930F9000030FA0061
:100DA4000930FB000030FC00F701F801E830F500E1
:100DB4000330F600CE2F0130F7000030F800CE2FBC
:100DC4007C08F1007B08F0000A128A1121260A121D
:100DD4008A117A08F1007908F0000A128A112A2689
:100DE4000A128A11FF30F9070318FA0AFF30FA07CA
:100DF4007608F1007508F0000A128A11AA260A1270
:100E04008A110A128A1169260A128A11700371045E
:100E1400031D0D2F0E2F122F0330F7000030F800A2
:100E2400FA1F152F162FCE2F0930F9000030FA00C3
:100E34000230F7000030F800CE2FFF30FB07031814
:100E4400FC0AFF30FC077C08F1007B08F0000A1262
:100E54008A1121260A128A11FC1F312F322FDD2E0E
:100E64000930FB000030FC000130F7000030F800CE
:100E7400CE2F0430F7000030F800CE2F0A128A116A
:100E840051260A128A1170037104031D4A2F4B2F35
:100E94004F2F0530F7000030F8000A128A11462659
:100EA4000A128A1170037104031D592F5A2F5E2FE1
:100EB4000630F7000030F8000A128A115C260A1284
:100EC4008A1170037104031D682F692FCE2F073018
:100ED400F7000030F800CE2F0130F9070318FA0AA2
:100EE4000030FA077A08803AFF0080307F02031D41
:100EF4007D2F0A307902031C802F812F832FF90163
:100F0400FA019630F0000030F1000A128A11AA2684
:100F14000A128A117A08F1007908F0000A128A117B
:100F24002A260A128A110330F7000030F800CE2F67
:100F34000130FB070318FC0A0030FC077C08803AE8
:100F4400FF0080307F02031DA92F0A307B02031C9F
:100F5400AC2FAD2FAF2FFB01FC017C08F1007B0807
:100F6400F0000A128A1121260A128A119630F00022
:100F74000030F1000A128A11AA260A128A11952F4A
:100F8400F430F0000130F1000A128A11AA260A1284
:100F94008A11F701F801CE2F7808003A0319D32FEC
:100FA400CE2F7708003A0319DD2E013A0319E22EF9
:100FB400033A03191F2F013A03193B2F073A031968
:100FC400402F013A03196E2F033A03199A2F013A5D
:100FD4000319C22FCE2F080083133030FD000630D2
:100FE400FE008730FF00203084000A128A119B26FD
:0C0FF4000A128A1183010A128A11332E9E
:04400E00D420FF3F7C
:00000001FF
